{
  "contractName": "CrossSwapContrat",
  "abi": [
    {
      "inputs": [
        {
          "internalType": "address",
          "name": "_anyswap",
          "type": "address"
        },
        {
          "internalType": "uint256",
          "name": "_gasThreshold",
          "type": "uint256"
        }
      ],
      "stateMutability": "nonpayable",
      "type": "constructor"
    },
    {
      "anonymous": false,
      "inputs": [
        {
          "indexed": false,
          "internalType": "uint256",
          "name": "gasPrice",
          "type": "uint256"
        },
        {
          "indexed": false,
          "internalType": "string",
          "name": "action",
          "type": "string"
        }
      ],
      "name": "GasPriceHigh",
      "type": "event"
    },
    {
      "inputs": [],
      "name": "anyswap",
      "outputs": [
        {
          "internalType": "contract IAnySwap",
          "name": "",
          "type": "address"
        }
      ],
      "stateMutability": "view",
      "type": "function",
      "constant": true
    },
    {
      "inputs": [],
      "name": "gasThreshold",
      "outputs": [
        {
          "internalType": "uint256",
          "name": "",
          "type": "uint256"
        }
      ],
      "stateMutability": "view",
      "type": "function",
      "constant": true
    },
    {
      "inputs": [],
      "name": "owner",
      "outputs": [
        {
          "internalType": "address",
          "name": "",
          "type": "address"
        }
      ],
      "stateMutability": "view",
      "type": "function",
      "constant": true
    },
    {
      "inputs": [
        {
          "internalType": "address",
          "name": "asset",
          "type": "address"
        },
        {
          "internalType": "address",
          "name": "to",
          "type": "address"
        },
        {
          "internalType": "uint256",
          "name": "value",
          "type": "uint256"
        },
        {
          "internalType": "uint256",
          "name": "toChainID",
          "type": "uint256"
        }
      ],
      "name": "checkGasAndSwap",
      "outputs": [],
      "stateMutability": "nonpayable",
      "type": "function"
    },
    {
      "inputs": [
        {
          "internalType": "uint256",
          "name": "_gasThreshold",
          "type": "uint256"
        }
      ],
      "name": "updateGasThreshold",
      "outputs": [],
      "stateMutability": "nonpayable",
      "type": "function"
    }
  ],
  "bytecode": "0x608060405234801561001057600080fd5b5060405161080c38038061080c833981810160405281019061003291906100eb565b336000806101000a81548173ffffffffffffffffffffffffffffffffffffffff021916908373ffffffffffffffffffffffffffffffffffffffff1602179055508060018190555081600260006101000a81548173ffffffffffffffffffffffffffffffffffffffff021916908373ffffffffffffffffffffffffffffffffffffffff1602179055505050610191565b6000815190506100d081610163565b92915050565b6000815190506100e58161017a565b92915050565b600080604083850312156100fe57600080fd5b600061010c858286016100c1565b925050602061011d858286016100d6565b9150509250929050565b600061013282610139565b9050919050565b600073ffffffffffffffffffffffffffffffffffffffff82169050919050565b6000819050919050565b61016c81610127565b811461017757600080fd5b50565b61018381610159565b811461018e57600080fd5b50565b61066c806101a06000396000f3fe608060405234801561001057600080fd5b50600436106100575760003560e01c806338759da41461005c5780637a78ede91461007a5780638da5cb5b14610098578063d31d83fe146100b6578063d41f1fb2146100d2575b600080fd5b6100646100ee565b604051610071919061054e565b60405180910390f35b6100826100f4565b60405161008f91906104f3565b60405180910390f35b6100a061011a565b6040516100ad9190610493565b60405180910390f35b6100d060048036038101906100cb919061037d565b61013e565b005b6100ec60048036038101906100e7919061031a565b6101d6565b005b60015481565b600260009054906101000a900473ffffffffffffffffffffffffffffffffffffffff1681565b60008054906101000a900473ffffffffffffffffffffffffffffffffffffffff1681565b60008054906101000a900473ffffffffffffffffffffffffffffffffffffffff1673ffffffffffffffffffffffffffffffffffffffff163373ffffffffffffffffffffffffffffffffffffffff16146101cc576040517f08c379a00000000000000000000000000000000000000000000000000000000081526004016101c39061050e565b60405180910390fd5b8060018190555050565b60003a9050600154811161021f576040517f08c379a00000000000000000000000000000000000000000000000000000000081526004016102169061052e565b60405180910390fd5b7f8e9fca323d38072bd7ef3d815df596d42eeefff3bc65ec9704c0aaf0517b1f5f8160405161024e9190610569565b60405180910390a1600260009054906101000a900473ffffffffffffffffffffffffffffffffffffffff1673ffffffffffffffffffffffffffffffffffffffff1663241dc2df868686866040518563ffffffff1660e01b81526004016102b794939291906104ae565b600060405180830381600087803b1580156102d157600080fd5b505af11580156102e5573d6000803e3d6000fd5b505050505050505050565b6000813590506102ff81610608565b92915050565b6000813590506103148161061f565b92915050565b6000806000806080858703121561033057600080fd5b600061033e878288016102f0565b945050602061034f878288016102f0565b935050604061036087828801610305565b925050606061037187828801610305565b91505092959194509250565b60006020828403121561038f57600080fd5b600061039d84828501610305565b91505092915050565b6103af816105a8565b82525050565b6103be816105e4565b82525050565b60006103d1601583610597565b91507f4f6e6c79206f776e65722063616e2075706461746500000000000000000000006000830152602082019050919050565b6000610411600f83610597565b91507f5377617070696e672041737365747300000000000000000000000000000000006000830152602082019050919050565b6000610451601183610597565b91507f47617320707269636520746f6f206c6f770000000000000000000000000000006000830152602082019050919050565b61048d816105da565b82525050565b60006020820190506104a860008301846103a6565b92915050565b60006080820190506104c360008301876103a6565b6104d060208301866103a6565b6104dd6040830185610484565b6104ea6060830184610484565b95945050505050565b600060208201905061050860008301846103b5565b92915050565b60006020820190508181036000830152610527816103c4565b9050919050565b6000602082019050818103600083015261054781610444565b9050919050565b60006020820190506105636000830184610484565b92915050565b600060408201905061057e6000830184610484565b818103602083015261058f81610404565b905092915050565b600082825260208201905092915050565b60006105b3826105ba565b9050919050565b600073ffffffffffffffffffffffffffffffffffffffff82169050919050565b6000819050919050565b60006105ef826105f6565b9050919050565b6000610601826105ba565b9050919050565b610611816105a8565b811461061c57600080fd5b50565b610628816105da565b811461063357600080fd5b5056fea2646970667358221220ee9832910ca4158902f75b5bfd0ca391d1e5971b127b30082e8abcc8e197b01664736f6c63430008000033",
  "immutableReferences": {},
  "source": "// SPDX-License-Identifier: MIT\npragma solidity ^0.8.0;\n\ninterface IAnySwap { // anysawpout   .          \n    function anySwapOut(address asset, address to, uint value, uint toChainID) external;\n}\n\ncontract CrossSwapContrat { // \n    address public owner;  //      \n    uint256 public gasThreshold; //   \n    IAnySwap public anyswap;      //anyswap     #IAnySwap# \n\n    event GasPriceHigh(uint256 gasPrice, string action);\n\n    constructor(address _anyswap, uint256 _gasThreshold) {   //  \n        owner = msg.sender;       //       \n        gasThreshold = _gasThreshold;   //   \n        anyswap = IAnySwap(_anyswap); // Anyswap   \n    }\n\n    //  ,   \n    function checkGasAndSwap(address asset, address to, uint256 value, uint256 toChainID) public {\n        uint256 currentGasPrice = tx.gasprice;\n        require(currentGasPrice > gasThreshold, \"Gas price too low\");\n        \n        emit GasPriceHigh(currentGasPrice, \"Swapping Assets\");\n        anyswap.anySwapOut(asset, to, value, toChainID); // Anyswap  //        \n    }\n\n    //   \n    function updateGasThreshold(uint256 _gasThreshold) public {\n        require(msg.sender == owner, \"Only owner can update\");\n        gasThreshold = _gasThreshold;\n    }\n} ",
  "sourcePath": "/Users/songhyunah/NH/project_swap/contracts/CrossSwapContrat.sol",
  "compiler": {
    "name": "solc",
    "version": "0.8.0+commit.c7dfd78e.Emscripten.clang"
  },
  "schemaVersion": "3.4.16",
  "updatedAt": "2024-10-08T20:04:51.448Z",
  "networkType": "ethereum",
  "devdoc": {
    "kind": "dev",
    "methods": {},
    "version": 1
  },
  "userdoc": {
    "kind": "user",
    "methods": {},
    "version": 1
  }
}